:1000000093EF00F094928B8294948B8494988B88D5
:1000100094968B86ADEF00F0EA6A080EE96EEF5019
:100020000DE0020E016E006A002EFED7012EFBD7F6
:10003000970E006E002EFED7EF2EF3D7000C949291
:100040008B9294948B9494988B8894968B86926AD6
:10005000896A94968B96060E006E002EFED70000DD
:1000600094968B86926A07C089FF94968B96060EAB
:10007000006E002EFED7000094968B8694948B849D
:10008000BDEF00F094928B9294948B8494988B881B
:1000900094968B8694988B98060E006E002EFED751
:1000A0000000FF0E926E80CF08F0076A94988B884C
:1000B000060E006E002EFED7000094988B98060E58
:1000C000006E002EFED70000FF0E926E80500712C9
:1000D00094988B8894928B8207C001F008C002F03C
:1000E000BEEF00F008BE10D00F0E006E07380016ED
:1000F0000A0E005C03E2300E002602D008500026F3
:1001000000509EA8FED7AD6E0F0E07160A0E075CB4
:1001100002E2300E02D0089E0850072607509EA823
:10012000FED7AD6E000CF86AD09EEA6AE96A600EEE
:10013000D36ED350B8960C0EAF6EA20EAC6E900E6E
:10014000AB6E000E7E6EC198C19A7F50E00B7F6E41
:10015000799A79987A6A7B6A55D794908B90020E37
:10016000086E5ADF94908B80020E076EFA0E086EAE
:1001700053DF072EFBD7076A62D784D702C006F089
:1001800001C005F006C007F0570E086EABDF05C0D2
:1001900007F0570E086EA6DF0A0E9EA8FED7AD6EBA
:1001A000040E076EFA0E086E37DF072EFBD7EAD76C
:0201B00003004A
:020000040030CA
:0E00000000C81F1E008F81000FC00FE00F40D0
:00000001FF
;PIC18F26K20
;CRC=F2E7  CREATED="02-Aug-17 17:32"
