:1000000008EF04F0EA6A180EE96EEF500DE00A0EF0
:10001000016E006A002EFED7012EFBD75F0E006E28
:10002000002EFED7EF2EF3D7000C94928B9294946F
:100030008B9494988B8894968B86926A896A94960E
:100040008B961A0E006E002EFED7000094968B86BB
:10005000926A45C089FF94968B961A0E006E002E08
:10006000FED7000094968B8694948B84000C176ABC
:1000700094928B8294968B8694988B8894908B9094
:10008000020E186EBFDF94908B8094928B92456A1B
:10009000CCDF176A1750020806E394968B96949665
:1000A0008B86172AF7D728EF04F042C045F0BDDF52
:1000B00094928B9294948B8494988B8894968B864C
:1000C000926A44C089FF94968B961A0E006E002E99
:1000D000FED7000094968B86926A43C089FF94965F
:1000E0008B961A0E006E002EFED7000094968B861B
:1000F00094928B82000C010E426E446E436AD5DFEF
:10010000020E426E070E446E436ACFDF030E426E4C
:10011000100E446E200E436EC8DF040E426E446A19
:10012000436AC3DF080E426E020E446E436EBDDFAB
:10013000090E426E446A436AB8DF0A0E426E446A90
:10014000436AB3DF0C0E426E446A436AAEDF0D0EA3
:10015000426E446A436AA9DF0F0E426E446A436AE4
:10016000A4DF100E426E446A436A9FDF110E426E96
:10017000446A070E436E99DF120E426E446A436A68
:1001800094DF130E426E446A436A8FDFC80E186E06
:1001900039DF100E426E160E446E900E436E85DFF0
:1001A000110E426E020E446E270E436E7EDF320E3B
:1001B000186E28DF120E426E446A1A0E436E75DF07
:1001C000320E186E1FDF130E426E180E446E436A15
:1001D0006CDF290E426E446A2A0E436E66DF320ED1
:1001E000186E10DF300E426E446A436A5EDF310ED5
:1001F000426E446A436A59DF320E426E446A436A71
:1002000054DF350E426E020E446E060E436E4DDF15
:10021000360E426E080E446E436E47DF370E426E56
:10022000446A070E436E41DF380E426E020E446E82
:10023000010E436E3ADF390E426E446A436A35DF7F
:100240003C0E426E446A436A30DF3D0E426E446AA1
:10025000436A2BDF200E426E446A436A26DF210E7A
:10026000426E446A436A21DF500E426E446A436A1A
:100270001CDF510E426E446AEF0E436E16DF520EC3
:10028000426E446A436A11DF530E426E010E446EA1
:100290003F0E436E0ADF600E426E270E446E436AC5
:1002A00004DF610E426E446A010E436EFEDE6A0E8A
:1002B000426E446A436AF9DE900E426E446A100E42
:1002C000436EF3DE920E426E446A436AEEDE930E94
:1002D000426E446A030E436EE8DE950E426E110EC6
:1002E000446E436AE2DE970E426E446A436ADDDE84
:1002F000980E426E446A436AD8DE070E426E010EC3
:10030000446E330E436ED1DE29EF04F0406A416A39
:10031000010E426EDA6AD96A456A380E446EEA6A9C
:100320003C0EE96E45C0E2FF44C0E1FF42C043F02D
:10033000D890E550EE02F3504022F4504122432E73
:10034000F7D740C0DEFF41C040F0416AD8B0412A33
:10035000442AD8B4452A422A42500508E0E1000C5C
:1003600043C045F042C044F0926A44C089FF94966D
:100370008B961A0E006E002EFED7000094968B8688
:10038000926A45C089FF94968B961A0E006E002ED5
:10039000FED7000094968B86000C1C6A1B6A010E27
:1003A0001A6E400E196E1CC03BF01BC03AF01AC00A
:1003B00039F019C038F03F6A3E6A3D6AF00E3C6E73
:1003C000A5DF03C01CF002C01BF001C01AF000C082
:1003D00019F0200E426E446A436A67DE210E426EB7
:1003E000446A436A62DE220E456E1FDE94928B924F
:1003F00094948B8494988B8894968B861CC003F07D
:100400001BC002F01AC001F019C000F0FF0E19263F
:10041000D8A01A26D8A01B26D8A01C26005206E178
:10042000015204E1025202E1035206E018C043F017
:1004300017C042F095DFE2D794928B822CEF04F044
:1004400023C025F022C024F025C003F024C0E9FF1A
:1004500025C0EAFFEF5204E0242AD8B4252AF4D7B5
:100460002250245C006E23502558036E00C001F01A
:10047000A8EF03F024502602F3CF01F0F4CF00F0F0
:100480002702F350002625502602F3500020026E6A
:10049000000C45C001F044C000F04466012A090088
:1004A000F5CFEEFF002EFBD7012EF9D7F86A000C2E
:1004B000016A026A006A036A3E5002E13D5018E098
:1004C000100E3F6ED8903B363C36003603363E5019
:1004D000035C02E13D50005C07E33D50005ED8A0A4
:1004E00003063E50035ED880013602363F2EEAD71F
:1004F000AAEF02F009C03BF008C03AF007C039F09B
:1005000006C038F0410E3F6EC60E3E6E4E0E3D6E7A
:100510006D0E3C6EFBDE390E0024066E300E01209F
:10052000076E000E0220086E000E0320096E08C040
:1005300000F009C001F0026A036A09C03AF008C07D
:1005400039F009C03CF008C03BF07F0E3E6EFF0E54
:100550003D6EAED700C001F003C002F061EF03F0C2
:10056000200E426E3FC044F03EC043F09EDD210E9F
:10057000426E3DC044F03CC043F097DD220E456E14
:1005800054DD94928B9294948B8494988B88949657
:100590008B8641C043F040C042F0E2DE91EF03F0B1
:1005A000FF0E2D6E2C6E1F0E366E1B0E376E296AD7
:1005B000286A2952D8A4C6D03750285CD8B0C2D0F7
:1005C000EE0E2624386EE90E2720396EF86A39C0FF
:1005D000F7FF38C0F6FFEA6A3A0EE96E456A010E87
:1005E000446E57DF010E26243B6E000E27203C6E22
:1005F000EE0E3B26E90E3C22F86A3CC0F7FF3BC0FA
:10060000F6FFEA6A3D0EE96E456A010E446E41DF6F
:10061000020E26243E6E000E27203F6EEE0E3E2672
:10062000E90E3F22F86A3FC0F7FF3EC0F6FFEA6AD4
:10063000400EE96E456A010E446E2BDF030E262440
:10064000416E000E2720426EEE0E4126E90E422238
:10065000F86A42C0F7FF41C0F6FFEA6A430EE96E4E
:10066000456A010E446E15DF3AC031F03DC030F0EE
:1006700040C02FF043C02EF0356A346A336A326AC4
:10068000036A026A016A010E006E3650386E07E096
:10069000D8900036013602360336382EF9D700508E
:1006A00032120150331202503412035035122B6AA9
:1006B0002A6A2B523FE136502A5C3CE20AA005D060
:1006C00019D702C02DF001C02CF02E503214006E4C
:1006D0002F503314016E30503414026E31503514E3
:1006E000036E005206E1015204E1025202E103529C
:1006F00018E02A502224386E2B502320396E2850BF
:1007000024243A6E295025203B6E39C03DF038C074
:100710003CF03F6E3AC03EF02DC041F02CC040F09E
:100720001FD7D89035323432333232322A2AD8B4F5
:100730002B2ABFD7040E2626000E2722282AD8B43B
:10074000292A37D7000C19C023F018C022F078D618
:1007500001C021F0206A2150205C59E2036A205038
:100760001824E96E19500320EA6EEF503A0826E388
:10077000036A20501824E96E19500320EA6E300EE7
:10078000EF5C236E256A246E276A6C0E266E72DE7D
:1007900002C01FF001C01EF01BC023F01AC022F0DF
:1007A0001DC025F01CC024F01FC027F01EC026F07D
:1007B000F7DE1F0E1A26000E1B2227D0036A2050D8
:1007C0001824E96E19500320EA6E410EEF5C236E87
:1007D000256A246E276A6C0E266E4CDE380E0124C4
:1007E0001E6E040E02201F6E1BC023F01AC022F0E2
:1007F0001DC025F01CC024F01FC027F01EC026F02D
:10080000CFDE1F0E1A26000E1B22202AA4D7000CB2
:10081000F86AD09EEA6AE96A600ED36E400E9B6E5B
:10082000D350B886400EAF6E030EB06EA60EAC6EFF
:10083000900EAB6E000E7E6EC198C19A7F50E00B99
:100840007F6E799A79987A6A7B6A046A056A0FD40E
:1008500052D4186A176AA1D5480E0B6E450E0C6E5D
:100860004C0E0D6E0E6E4F0E0F6E106A570E116EFF
:100870004F0E126E520E136E4C0E146E440E156E09
:10088000166A036A0B0EE96E03C0EAFFEFCF17F09A
:10089000196A17C018F01B6A0A0E1A6E1D6A1C6EC0
:1008A00052DF036A110EE96E03C0EAFFEFCF17F0C3
:1008B000196A17C018F01B6A0A0E1A6E1D6A1F0EFD
:0608C0001C6E41DFFFD7B2
:10F91E0000007F80000000007F8000000000FFC01C
:10F92E0000000001FFC000000001FFE00000000326
:10F93E00FFE000000003F7F000000007F7F80000FA
:10F94E000007E3F80000000FE3FC0000000FC1FC0D
:10F95E000000001FC1FE0000003F80FE0000003FBF
:10F96E0080FF0000007F007F8000007F007F80000E
:10F97E0000FE003FC00000FE001FC00001FC001F83
:10F98E00E00003FFFFFFE00003FFFFFFF00007FFB3
:10F99E00FFFFF80007FFFFFFF8000FFFFFFFFC005F
:10F9AE000FFFFFFFFC001FC00001FE001FC0000183
:10F9BE00FE003F800000FF007F800000FF807F0080
:10F9CE0000007F80FE0000003FC03F800000FE0070
:10F9DE003F800000FE003F800000FE003F800000E0
:10F9EE00FE003F800000FE003F800000FE003F80D2
:10F9FE000000FE003F800000FE003F800000FE0081
:10FA0E003F800000FE003F800000FE003F800000AF
:10FA1E00FE003FFFFFFFFE003FFFFFFFFE003FFF28
:10FA2E00FFFFFE003FFFFFFFFE003FFFFFFFFE0058
:10FA3E003FFFFFFFFE003F800000FE003F80000002
:10FA4E00FE003F800000FE003F800000FE003F8071
:10FA5E000000FE003F800000FE003F800000FE0020
:10FA6E003F800000FE003F800000FE003F8000004F
:10FA7E00FE003F800000FE003F800000FE003F8041
:10FA8E000000FE000FFFFFFFE0001FFFFFFFF8006A
:10FA9E003FFFFFFFFC003FFFFFFFFC007FFFFFFF6C
:10FAAE00FE007FFFFFFFFE007F000000FE007F00D4
:10FABE000000FE007F000000FE007F000000FE0040
:10FACE007F000000FE007F000000FE007F000000AF
:10FADE00FE007F000000FE007F000000FE007F00A1
:10FAEE000000FE007F000000FE007F000000FE0010
:10FAFE007F000000FE007F000000FE007F0000007F
:10FB0E00FE007F000000FE007F000000FE007F0070
:10FB1E000000FE007F000000FE007FFFFFFFFE00E2
:10FB2E007FFFFFFFFE007FFFFFFFFE003FFFFFFF97
:10FB3E00FC001FFFFFFFF8000FFFFFFFF000007F2C
:10FB4E00FFFF800001FFFFFFE00003FFFFFFF0005B
:10FB5E0003FFFFFFF00007FFFFFFF80007FFFFFFA7
:10FB6E00F80007E00001F80007E00001F80007E0E8
:10FB7E000001F00007E00001800007E00000000037
:10FB8E0007E00000000007FFFFFFC00007FFFFFFB8
:10FB9E00F00007FFFFFFF80003FFFFFFFC0003FF6D
:10FBAE00FFFFFC0000FFFFFFFC0000000000FC0058
:10FBBE0000000000FC0000000000FC0001800000BE
:10FBCE00FC001F800000FC001F800000FC001F8056
:10FBDE000000FC001FFFFFFFFC001FFFFFFFFC00EB
:10FBEE000FFFFFFFF8000FFFFFFFF80007FFFFFFFB
:10FBFE00F00001FFFFFFC0003FF00000FF801FF884
:10FC0E000001FF000FFC0003FE0007FE0007FC00D2
:10FC1E0003FE0007F80001FF000FF00000FF801F39
:10FC2E00E000007FC03FC000003FE07F8000001F6B
:10FC3E00F0FF0000000FF9FE00000007FFFC0000BF
:10FC4E000003FFF800000001FFF000000000FFE0DD
:10FC5E0000000000FFC0000000007F8000000000D8
:10FC6E003F80000000003F80000000003F80000049
:10FC7E0000003F80000000003F80000000003F8039
:10FC8E00000000003F80000000003F8000000000E8
:10FC9E003F80000000003F80000000003F80000019
:10FCAE0000003F80000000003F80000000003F8009
:02FCBE00000044
:10E9EE00000FC000003FF000007FF800007FFC0029
:10E9FE0000F87C0000F87C0001F03E0001F03E00C3
:10EA0E0001F03E0001F03E0001F03E0001F03E003C
:10EA1E0001F03E0001F03E0001F03E0001F03E002C
:10EA2E0001F03E0000F87C0000F8FC0000FFF8004A
:10EA3E00007FF800003FF000000FC0000000000053
:10EA4E000000000000000000000000000003E000D5
:10EA5E00000FE000001FE000007FE000007BE00000
:10EA6E000063E0000003E0000003E0000003E000AC
:10EA7E000003E0000003E0000003E0000003E000FC
:10EA8E000003E0000003E0000003E0000003E000EC
:10EA9E000003E0000003E000007FFE00007FFE00A8
:10EAAE00007FFE00007FFE0000000000000000005E
:10EABE000000000000000000000FC000003FF0004A
:10EACE0000FFF80000FFFC0000E0FC0000C07C002E
:10EADE0000007C0000007C0000007C000000F800BC
:10EAEE000000F8000001F0000003E0000007E00065
:10EAFE00000FC000001F8000003F0000007E0000DD
:10EB0E00007C000000FFFE0000FFFE0000FFFE0084
:10EB1E0000FFFE00000000000000000000000000EA
:10EB2E0000000000000FE000003FF000007FF80042
:10EB3E00007FFC000070FC0000407C0000007C00A8
:10EB4E0000007C000001F800003FF000003FC00014
:10EB5E00003FF800003FFC000000FC0000007E00BB
:10EB6E0000003E0000003E0000003E0000C0FE001F
:10EB7E0000FFFC0000FFF80000FFF000003FC000A7
:10EB8E000000000000000000000000000000000077
:10EB9E000003F8000003F8000007F8000007F80073
:10EBAE00000FF800001EF800001EF800003CF800F0
:10EBBE00003CF8000078F8000078F80000F0F8004B
:10EBCE0000F0F80001E0F80001FFFF0001FFFF0078
:10EBDE0001FFFF0001FFFF000000F8000000F80039
:10EBEE000000F8000000F8000000F800000000002F
:10EBFE00000000000000000000000000007FFC008C
:10EC0E00007FFC00007FFC00007FFC00007800000D
:10EC1E00007800000078000000780000007FE0001F
:10EC2E00007FF800007FFC00007FFC000000FE006B
:10EC3E0000003E0000003E0000003E0000003E00CE
:10EC4E0000007E0000C0FC0000FFFC0000FFF8008A
:10EC5E0000FFF000003FC0000000000000000000B8
:10EC6E0000000000000000000003F800001FFC0080
:10EC7E00003FFC00007FFC00007E0C0000F800004E
:10EC8E0000F8000000F0000001F0000001F3F000B9
:10EC9E0001FFF80001FFFC0001FFFE0001F87E00FD
:10ECAE0001F03E0001F03E0001F03E0001F83E0092
:10ECBE0000F87C0000FFFC00007FF800003FF00031
:10ECCE00000FC00000000000000000000000000067
:10ECDE000000000001FFFC0001FFFC0001FFFC0032
:10ECEE0001FFFC0000007C000000F8000000F800AE
:10ECFE000001F0000001F0000001E0000003E00060
:10ED0E000003E0000007C0000007C000000F8000F5
:10ED1E00000F8000001F0000001F0000001F0000F9
:10ED2E00003E0000003E0000007C0000007C000061
:10ED3E0000000000000000000000000000000000C5
:10ED4E00000FE000003FF000007FF80000FFFC0025
:10ED5E0000FCFC0000F87C0000F87C0000F87C0051
:10ED6E00007CF800007FF000003FE000001FE00094
:10ED7E00003FF800007CFC0000F87E0001F03E0031
:10ED8E0001F03E0001F03E0001F87E0001FFFC00A4
:10ED9E0000FFFC00007FF800001FE00000000000F4
:10EDAE00000000000000000000000000000FC00086
:10EDBE00003FF000007FF80000FFFC0000F87C0030
:10EDCE0001F07E0001F03E0001F03E0001F03E0039
:10EDDE0001F87E0001FFFE0000FFFE00007FFE0036
:10EDEE00003FBE0000003E0000003C0000007C0022
:10EDFE0000007C0000C1F80000FFF80000FFF000EA
:10EE0E0000FFE000003F8000000000000000000056
:10EE1E000000000000000000000FC000001FC00036
:10EE2E00001FC000001FE000003DE000003DE000BC
:10EE3E00003DF0000078F0000078F0000078F80057
:10EE4E0000F8F80000F0780000F07C0001F07C0083
:10EE5E0001FFFC0001FFFE0003FFFE0003FFFE00AA
:10EE6E0003C01F0007C01F0007801F0007800F8010
:10EE7E000F800F8000000000000000000000000066
:10EE8E000000000001FFE00001FFF80001FFFC00A0
:10EE9E0001FFFE0001F07E0001F03E0001F03E0099
:10EEAE0001F03E0001F07C0001FFF80001FFF000D0
:10EEBE0001FFFC0001FFFE0001F07F0001F01F00CA
:10EECE0001F01F0001F01F0001F01F0001F03F00D4
:10EEDE0001FFFE0001FFFC0001FFF80001FFE00052
:10EEEE000000000000000000000000000000000014
:10EEFE000003F800000FFE00001FFF00003FFF00A0
:10EF0E00007E070000FC030000F8000000F800007F
:10EF1E0001F0000001F0000001F0000001F000001F
:10EF2E0001F0000001F0000001F0000001F8000007
:10EF3E0000F8000000FC0300007E0700007FFF00C9
:10EF4E00003FFF00001FFE000003F800000000005D
:10EF5E0000000000000000000000000007FF80001D
:10EF6E0007FFE00007FFF80007FFFC0007C1FC00E9
:10EF7E0007C07E0007C03E0007C03F0007C01F004D
:10EF8E0007C01F0007C01F0007C01F0007C01F00DB
:10EF9E0007C01F0007C01F0007C03F0007C03E008C
:10EFAE0007C07E0007C1FC0007FFFC0007FFF8004A
:10EFBE0007FFE00007FF0000000000000000000057
:10EFCE00000000000000000000FFFC0000FFFC003D
:10EFDE0000FFFC0000FFFC0000F8000000F800003D
:10EFEE0000F8000000F8000000F8000000FFF80034
:10EFFE0000FFF80000FFF80000FFF80000F8000026
:10F00E0000F8000000F8000000F8000000F8000012
:10F01E0000F8000000FFFC0000FFFC0000FFFC00F9
:10F02E0000FFFC00000000000000000000000000D7
:10F03E000000000000FFF80000FFF80000FFF800DD
:10F04E0000FFF80000F8000000F8000000F80000D3
:10F05E0000F8000000F8000000F8000000FFF000CB
:10F06E0000FFF80000FFF80000FFF00000F80000BD
:10F07E0000F8000000F8000000F8000000F80000A2
:10F08E0000F8000000F8000000F8000000F8000092
:10F09E000000000000000000000000000000000062
:10F0AE000007F800003FFE00007FFF0000FFFF009A
:10F0BE0001FC0F0003F0030003F0000003E000006A
:10F0CE0007C0000007C0000007C1FF0007C1FF0016
:10F0DE0007C1FF0007C1FF0007C01F0007E01F00A8
:10F0EE0003E01F0003F01F0001FC1F0000FFFF00E4
:10F0FE00007FFF00003FFF00000FF800000000003F
:10F10E0000000000000000000000000007C03E00EC
:10F11E0007C03E0007C03E0007C03E0007C03E00CD
:10F12E0007C03E0007C03E0007C03E0007C03E00BD
:10F13E0007FFFE0007FFFE0007FFFE0007FFFE00B1
:10F14E0007C03E0007C03E0007C03E0007C03E009D
:10F15E0007C03E0007C03E0007C03E0007C03E008D
:10F16E0007C03E0007C03E00000000000000000087
:10F17E000000000000000000000F8000000F800063
:10F18E00000F8000000F8000000F8000000F800035
:10F19E00000F8000000F8000000F8000000F800025
:10F1AE00000F8000000F8000000F8000000F800015
:10F1BE00000F8000000F8000000F8000000F800005
:10F1CE00000F8000000F8000000F8000000F8000F5
:10F1DE00000F800000000000000000000000000092
:10F1EE00000000000003E0000003E0000003E00068
:10F1FE000003E0000003E0000003E0000003E00075
:10F20E000003E0000003E0000003E0000003E00064
:10F21E000003E0000003E0000003E0000003E00054
:10F22E000003E0000003E0000003E0000067E000E0
:10F23E00007FE000007FC000007F8000003F0000E4
:10F24E0000000000000000000000000000000000B0
:10F25E0001F01F0001F03F0001F03E0001F07C00C4
:10F26E0001F0FC0001F0F80001F1F00001F3E00004
:10F27E0001F7E00001F7C00001FF800001FFC000B0
:10F28E0001F7C00001F7E00001F3E00001F1F0002A
:10F29E0001F1F80001F0F80001F07C0001F07E00B1
:10F2AE0001F03E0001F01F0001F01F000000000001
:10F2BE00000000000000000000000000003E000002
:10F2CE00003E0000003E0000003E0000003E000038
:10F2DE00003E0000003E0000003E0000003E000028
:10F2EE00003E0000003E0000003E0000003E000018
:10F2FE00003E0000003E0000003E0000003E000008
:10F30E00003E0000003E0000003FFE00003FFE00F9
:10F31E00003FFE00003FFE00000000000000000065
:10F32E0000000000000000007F8007F07FC00FF09B
:10F33E007FC01FF07FC01FF07FE01FF07DE03DF02B
:10F34E007DE03DF07DF03DF07CF079F07CF079F0E1
:10F35E007CF879F07CF8F1F07C78F1F07C7CF1F0BF
:10F36E007C7DE1F07C3DE1F07C3FE1F07C3FC1F043
:10F37E007C1FC1F07C1FC1F07C1F81F07C0F81F0DF
:10F38E007C0F81F000000000000000000000000073
:10F39E000000000007E00F0007F00F0007F00F005D
:10F3AE0007F80F0007F80F0007BC0F0007BC0F008F
:10F3BE00079E0F00079E0F00078F0F00078F0F008D
:10F3CE0007878F0007878F000783CF000783CF0043
:10F3DE000781EF000781EF000780EF000780FF0035
:10F3EE0007807F0007807F0007803F0007801F0097
:10F3FE0000000000000000000000000000000000FF
:10F40E00001FE000007FFC0000FFFE0001FFFF0078
:10F41E0003F03F8007E01F8007C00F8007C00FC0BA
:10F42E000F8007C00F8007C00F8007C00F8007C076
:10F43E000F8007C00F8007C00F8007C00FC00F805E
:10F44E0007C00F8007E01F8007F03F0003FFFE009C
:10F45E0001FFFC0000FFF800001FE00000000000AC
:10F46E0000000000000000000000000000FFE000AF
:10F47E0000FFF80000FFFC0000FFFE0000F83F0058
:10F48E0000F81F0000F81F0000F81F0000F81F0012
:10F49E0000F83F0000F87E0000FFFE0000FFFC00B9
:10F4AE0000FFF80000FFE00000F8000000F8000088
:10F4BE0000F8000000F8000000F8000000F800005E
:10F4CE0000F8000000F8000000000000000000003E
:10F4DE000000000000000000003FC00000FFF80028
:10F4EE0003FFFC0003FFFE0007E07F000FC03F009C
:10F4FE000F801F001F801F801F000F801F000F80B6
:10F50E001F000F801F000F801F000F801F000F8035
:10F51E001F000F801F801F000F801F000FC03F00B5
:10F52E000FE07E0007FFFC0003FFFC0001FFFF0061
:10F53E00003F9F8000000FE0000007E0000003E0A6
:10F54E00000000E001FFE00001FFF80001FFFC00F9
:10F55E0001FFFC0001F07E0001F03E0001F03E00D4
:10F56E0001F03E0001F03E0001F07C0001FFFC00C6
:10F57E0001FFF80001FFE00001FFF00001F1F800CB
:10F58E0001F0F80001F07C0001F07C0001F03E007B
:10F59E0001F03E0001F03E0001F01F0001F01F00DF
:10F5AE00000000000000000000000000000000004D
:10F5BE000007F000001FFC00007FFC00007FFC0035
:10F5CE0000FC0C0000F8000000F8000000FC000039
:10F5DE0000FE0000007FC000003FF000001FF8009A
:10F5EE000007FC000001FE0000007E0000003E004F
:10F5FE0000003E0000C03E0000F07E0000FFFC0058
:10F60E0000FFF800007FF000001FC00000000000A7
:10F61E0000000000000000000000000001FFFF00DD
:10F62E0001FFFF0001FFFF0001FFFF000007C00008
:10F63E000007C0000007C0000007C0000007C000A0
:10F64E000007C0000007C0000007C0000007C00090
:10F65E000007C0000007C0000007C0000007C00080
:10F66E000007C0000007C0000007C0000007C00070
:10F67E000007C0000007C0000000000000000000EE
:10F68E00000000000000000007C01F0007C01F00A0
:10F69E0007C01F0007C01F0007C01F0007C01F00C4
:10F6AE0007C01F0007C01F0007C01F0007C01F00B4
:10F6BE0007C01F0007C01F0007C01F0007C01F00A4
:10F6CE0007C01F0007C01F0007C01F0007E03F0054
:10F6DE0003F07E0003FFFE0001FFFC0000FFF000C0
:10F6EE00001FC0000000000000000000000000002D
:10F6FE000000000007C007C007E00FC003E00F8046
:10F70E0003E00F8003F01F8001F01F0001F01F00C7
:10F71E0001F01F0000F83E0000F83E0000F83E0029
:10F72E00007C7C00007C7C00007C7800003C780033
:10F73E00003EF800003EF000001EF000001FF0003A
:10F74E00001FE000000FE000000FE000000FC000FF
:10F75E00000000000000000000000000000000009B
:10F76E00F807C03EFC07C07E7C07E07C7C07E07C8F
:10F77E007C07E07C7E0FE07C3E0FF0783E0EF0F8CA
:10F78E003E0EF0F81E1EF0F81F1EF8F01F1E78F049
:10F79E001F1C78F00F1C79F00FBC7DE00FBC3DE014
:10F7AE000FB83DE007B83DE007F83FC007F81FC0AF
:10F7BE0003F81FC003F01FC003F01F8000000000FD
:10F7CE0000000000000000000000000003E03E000A
:10F7DE0003E03E0003F07E0001F07C0001F8FC0027
:10F7EE0000F8F800007DF000007DF000003FE00022
:10F7FE00003FE000001FC000001FC000003FE000FF
:10F80E00003FE000007DF000007DF00000F8F80001
:10F81E0000F8F80001F07C0003F07E0003E03E00EB
:10F82E0007E03F0007C01F000000000000000000BE
:10F83E00000000000000000003E03E0003E03E0078
:10F84E0003F07E0001F07C0001F87C0000F8F80067
:10F85E0000F8F800007DF000007DF000003DE000B3
:10F86E00003FE000001FC000001FC000000F80001E
:10F87E00000F8000000F8000000F8000000F80003E
:10F88E00000F8000000F8000000F8000000F80002E
:10F89E00000F8000000000000000000000000000CB
:10F8AE000000000000FFFE0000FFFE0000FFFE0053
:10F8BE0000FFFE0000003E0000007C000000F8008B
:10F8CE000000F8000001F0000003E0000003E0007B
:10F8DE000007C000000F8000000F8000001F000016
:10F8EE00003E0000003E0000007C0000007800009A
:10F8FE0000FFFF0000FFFF0000FFFF0000FFFF0002
:10F90E0000000000000000000000000000000000E9
:020000040030CA
:0E00000000C8191E008F00000FC00FE00F4057
:00000001FF
;PIC18F26K20
;CRC=0980  CREATED="24-Aug-17 00:37"
